{
  "_format": "hh3-artifact-1",
  "contractName": "CertificateRegistry",
  "sourceName": "contracts/CertificateRegistry.sol",
  "abi": [
    {
      "anonymous": false,
      "inputs": [
        {
          "indexed": true,
          "internalType": "bytes32",
          "name": "certHash",
          "type": "bytes32"
        },
        {
          "indexed": false,
          "internalType": "uint256",
          "name": "timestamp",
          "type": "uint256"
        },
        {
          "indexed": true,
          "internalType": "address",
          "name": "registrar",
          "type": "address"
        }
      ],
      "name": "CertificateRegistered",
      "type": "event"
    },
    {
      "inputs": [
        {
          "internalType": "bytes32",
          "name": "",
          "type": "bytes32"
        }
      ],
      "name": "certificateTimestamps",
      "outputs": [
        {
          "internalType": "uint256",
          "name": "",
          "type": "uint256"
        }
      ],
      "stateMutability": "view",
      "type": "function"
    },
    {
      "inputs": [
        {
          "internalType": "bytes32",
          "name": "certHash",
          "type": "bytes32"
        }
      ],
      "name": "isRegistered",
      "outputs": [
        {
          "internalType": "bool",
          "name": "",
          "type": "bool"
        }
      ],
      "stateMutability": "view",
      "type": "function"
    },
    {
      "inputs": [
        {
          "internalType": "bytes32",
          "name": "certHash",
          "type": "bytes32"
        }
      ],
      "name": "registerCertificate",
      "outputs": [],
      "stateMutability": "nonpayable",
      "type": "function"
    },
    {
      "inputs": [
        {
          "internalType": "bytes32",
          "name": "certHash",
          "type": "bytes32"
        }
      ],
      "name": "verifyCertificate",
      "outputs": [
        {
          "internalType": "uint256",
          "name": "",
          "type": "uint256"
        }
      ],
      "stateMutability": "view",
      "type": "function"
    }
  ],
  "bytecode": "0x6080604052348015600e575f5ffd5b506101dc8061001c5f395ff3fe608060405234801561000f575f5ffd5b506004361061004a575f3560e01c806327258b221461004e57806360fdfcad14610084578063850c1768146100b1578063f101dce8146100d0575b5f5ffd5b61006f61005c36600461018f565b5f90815260208190526040902054151590565b60405190151581526020015b60405180910390f35b6100a361009236600461018f565b5f6020819052908152604090205481565b60405190815260200161007b565b6100a36100bf36600461018f565b5f9081526020819052604090205490565b6100e36100de36600461018f565b6100e5565b005b5f81815260208190526040902054156101445760405162461bcd60e51b815260206004820152601e60248201527f436572746966696361746520616c726561647920726567697374657265640000604482015260640160405180910390fd5b5f818152602081815260409182902042908190559151918252339183917fa26bffe1d0be2a3471c202f22603c75f871205392082fe3b3f1c2a9eeaba5e24910160405180910390a350565b5f6020828403121561019f575f5ffd5b503591905056fea264697066735822122010219f254acda82bb8d00a710789c11e1e25fe18030b069e51a0ebb659b39ae264736f6c634300081c0033",
  "linkReferences": {},
  "deployedLinkReferences": {},
  "immutableReferences": {},
  "inputSourceName": "project/contracts/CertificateRegistry.sol",
  "buildInfoId": "solc-0_8_28-908597f8f783c0291d72351fdf98404e7ac1e7e1"
}